:100000000C942A000C943F000C943F000C943F0089
:100010000C943F000C943F000C943F000C943F0064
:100020000C943F000C943F000C943F000C943F0054
:100030000C943F000C943F000C943F000C943F0044
:100040000C943F000C943F000C943F000C943F0034
:100050000C943F0011241FBECFE5D8E0DEBFCDBF1A
:1000600010E0A0E6B0E0EEE4F3E002C005900D92EF
:10007000A837B107D9F70E9440010C94A5010C9450
:1000800000008FEF8ABB17BA81E084BB8EEF81BB83
:100090009BB38AB3809589238F638BBB98B387B357
:1000A0008095892388BB95B384B38095892385BBCC
:1000B00092B381B3809589238E6382BB0895DB015F
:1000C000843010F080E00895E82FF0E0EE0FFF1F7D
:1000D000E059FF4F0190F081E02D80818C9381E009
:1000E0000895843010F080E00895E82FF0E0EE0FDE
:1000F000FF1FE859FF4F0190F081E02D608381E000
:100100000895282FDB01803210F080E00895E82F59
:10011000E695E695E695F0E0EE0FFF1FE059FF4FFC
:100120000190F081E02D808190E0277002C09595CC
:1001300087952A95E2F781708C9381E0089580324B
:1001400010F080E00895E82FE695E695E695F0E05A
:10015000EE0FFF1FE859FF4F0190F081E02D308135
:10016000282F277081E090E0022E02C0880F991F8F
:100170000A94E2F78095832301C0660F2A95EAF777
:10018000862B808381E00895803210F080E008950E
:10019000E82FE695E695E695F0E0EE0FFF1FE05AB2
:1001A000FF4F0190F081E02D3081282F277081E0F2
:1001B00090E0022E02C0880F991F0A94E2F7809502
:1001C000832301C0660F2A95EAF7862B808381E09E
:1001D0000895843010F080E00895E82FF0E0EE0FED
:1001E000FF1FE05AFF4F0190F081E02D608381E016
:1001F0000895282FDB01803210F080E00895E82F69
:10020000E695E695E695F0E0EE0FFF1FE05AFF4F0A
:100210000190F081E02D808190E0277002C09595DB
:1002200087952A95E2F781708C9381E00895DB0130
:10023000843010F080E00895E82FF0E0EE0FFF1F0B
:10024000E05AFF4F0190F081E02D80818C9381E096
:10025000089590E0A0E0B0E0BC01CD0120E43FE1D2
:1002600040E050E00E94860105C0000061507040EF
:10027000804090406115710581059105B1F70895A1
:10028000DF93CF9300D0CDB7DEB70E94410080E06E
:100290006FEF0E94E90081E06FEF0E94E90082E0C9
:1002A0006FEF0E94E90083E06FEF0E94E90083E0B6
:1002B00060E00E94C40083E0BE016E5F7F4F0E9439
:1002C000170181E161E00E949F0082E161E00E94EC
:1002D0009F0083E161E00E949F0082E0BE016F5FAA
:1002E0007F4F0E945F0080E06A810E94710084E17C
:1002F00061E00E949F008AEF0E94290184E160E092
:100300000E949F008AEF0E942901F1CF629FD001D5
:10031000739FF001829FE00DF11D649FE00DF11DC0
:10032000929FF00D839FF00D749FF00D659FF00D6F
:100330009927729FB00DE11DF91F639FB00DE11D5C
:0E034000F91FBD01CF0111240895F894FFCFDD
:10034E003A003700340031003B00380035003200EF
:08035E003900360033003000C5
:00000001FF
